{
  "_format": "hh-sol-artifact-1",
  "contractName": "BasedOFT",
  "sourceName": "contracts/BasedOFT.sol",
  "abi": [
    {
      "inputs": [
        {
          "internalType": "string",
          "name": "_name",
          "type": "string"
        },
        {
          "internalType": "string",
          "name": "_symbol",
          "type": "string"
        },
        {
          "internalType": "address",
          "name": "_lzEndpoint",
          "type": "address"
        }
      ],
      "stateMutability": "nonpayable",
      "type": "constructor"
    },
    {
      "anonymous": false,
      "inputs": [
        {
          "indexed": true,
          "internalType": "address",
          "name": "owner",
          "type": "address"
        },
        {
          "indexed": true,
          "internalType": "address",
          "name": "spender",
          "type": "address"
        },
        {
          "indexed": false,
          "internalType": "uint256",
          "name": "value",
          "type": "uint256"
        }
      ],
      "name": "Approval",
      "type": "event"
    },
    {
      "anonymous": false,
      "inputs": [
        {
          "indexed": false,
          "internalType": "uint16",
          "name": "_srcChainId",
          "type": "uint16"
        },
        {
          "indexed": false,
          "internalType": "bytes",
          "name": "_srcAddress",
          "type": "bytes"
        },
        {
          "indexed": false,
          "internalType": "uint64",
          "name": "_nonce",
          "type": "uint64"
        },
        {
          "indexed": false,
          "internalType": "bytes",
          "name": "_payload",
          "type": "bytes"
        }
      ],
      "name": "MessageFailed",
      "type": "event"
    },
    {
      "anonymous": false,
      "inputs": [
        {
          "indexed": true,
          "internalType": "address",
          "name": "previousOwner",
          "type": "address"
        },
        {
          "indexed": true,
          "internalType": "address",
          "name": "newOwner",
          "type": "address"
        }
      ],
      "name": "OwnershipTransferred",
      "type": "event"
    },
    {
      "anonymous": false,
      "inputs": [
        {
          "indexed": true,
          "internalType": "uint16",
          "name": "_srcChainId",
          "type": "uint16"
        },
        {
          "indexed": true,
          "internalType": "bytes",
          "name": "_srcAddress",
          "type": "bytes"
        },
        {
          "indexed": true,
          "internalType": "address",
          "name": "_toAddress",
          "type": "address"
        },
        {
          "indexed": false,
          "internalType": "uint256",
          "name": "_amount",
          "type": "uint256"
        },
        {
          "indexed": false,
          "internalType": "uint64",
          "name": "_nonce",
          "type": "uint64"
        }
      ],
      "name": "ReceiveFromChain",
      "type": "event"
    },
    {
      "anonymous": false,
      "inputs": [
        {
          "indexed": true,
          "internalType": "address",
          "name": "_sender",
          "type": "address"
        },
        {
          "indexed": true,
          "internalType": "uint16",
          "name": "_dstChainId",
          "type": "uint16"
        },
        {
          "indexed": true,
          "internalType": "bytes",
          "name": "_toAddress",
          "type": "bytes"
        },
        {
          "indexed": false,
          "internalType": "uint256",
          "name": "_amount",
          "type": "uint256"
        },
        {
          "indexed": false,
          "internalType": "uint64",
          "name": "_nonce",
          "type": "uint64"
        }
      ],
      "name": "SendToChain",
      "type": "event"
    },
    {
      "anonymous": false,
      "inputs": [
        {
          "indexed": false,
          "internalType": "uint16",
          "name": "_srcChainId",
          "type": "uint16"
        },
        {
          "indexed": false,
          "internalType": "bytes",
          "name": "_srcAddress",
          "type": "bytes"
        }
      ],
      "name": "SetTrustedRemote",
      "type": "event"
    },
    {
      "anonymous": false,
      "inputs": [
        {
          "indexed": true,
          "internalType": "address",
          "name": "from",
          "type": "address"
        },
        {
          "indexed": true,
          "internalType": "address",
          "name": "to",
          "type": "address"
        },
        {
          "indexed": false,
          "internalType": "uint256",
          "name": "value",
          "type": "uint256"
        }
      ],
      "name": "Transfer",
      "type": "event"
    },
    {
      "inputs": [
        {
          "internalType": "address",
          "name": "owner",
          "type": "address"
        },
        {
          "internalType": "address",
          "name": "spender",
          "type": "address"
        }
      ],
      "name": "allowance",
      "outputs": [
        {
          "internalType": "uint256",
          "name": "",
          "type": "uint256"
        }
      ],
      "stateMutability": "view",
      "type": "function"
    },
    {
      "inputs": [
        {
          "internalType": "address",
          "name": "spender",
          "type": "address"
        },
        {
          "internalType": "uint256",
          "name": "amount",
          "type": "uint256"
        }
      ],
      "name": "approve",
      "outputs": [
        {
          "internalType": "bool",
          "name": "",
          "type": "bool"
        }
      ],
      "stateMutability": "nonpayable",
      "type": "function"
    },
    {
      "inputs": [
        {
          "internalType": "address",
          "name": "account",
          "type": "address"
        }
      ],
      "name": "balanceOf",
      "outputs": [
        {
          "internalType": "uint256",
          "name": "",
          "type": "uint256"
        }
      ],
      "stateMutability": "view",
      "type": "function"
    },
    {
      "inputs": [],
      "name": "circulatingSupply",
      "outputs": [
        {
          "internalType": "uint256",
          "name": "",
          "type": "uint256"
        }
      ],
      "stateMutability": "view",
      "type": "function"
    },
    {
      "inputs": [],
      "name": "decimals",
      "outputs": [
        {
          "internalType": "uint8",
          "name": "",
          "type": "uint8"
        }
      ],
      "stateMutability": "view",
      "type": "function"
    },
    {
      "inputs": [
        {
          "internalType": "address",
          "name": "spender",
          "type": "address"
        },
        {
          "internalType": "uint256",
          "name": "subtractedValue",
          "type": "uint256"
        }
      ],
      "name": "decreaseAllowance",
      "outputs": [
        {
          "internalType": "bool",
          "name": "",
          "type": "bool"
        }
      ],
      "stateMutability": "nonpayable",
      "type": "function"
    },
    {
      "inputs": [
        {
          "internalType": "uint16",
          "name": "_dstChainId",
          "type": "uint16"
        },
        {
          "internalType": "bytes",
          "name": "_toAddress",
          "type": "bytes"
        },
        {
          "internalType": "uint256",
          "name": "_amount",
          "type": "uint256"
        },
        {
          "internalType": "bool",
          "name": "_useZro",
          "type": "bool"
        },
        {
          "internalType": "bytes",
          "name": "_adapterParams",
          "type": "bytes"
        }
      ],
      "name": "estimateSendFee",
      "outputs": [
        {
          "internalType": "uint256",
          "name": "nativeFee",
          "type": "uint256"
        },
        {
          "internalType": "uint256",
          "name": "zroFee",
          "type": "uint256"
        }
      ],
      "stateMutability": "view",
      "type": "function"
    },
    {
      "inputs": [
        {
          "internalType": "uint16",
          "name": "",
          "type": "uint16"
        },
        {
          "internalType": "bytes",
          "name": "",
          "type": "bytes"
        },
        {
          "internalType": "uint64",
          "name": "",
          "type": "uint64"
        }
      ],
      "name": "failedMessages",
      "outputs": [
        {
          "internalType": "bytes32",
          "name": "",
          "type": "bytes32"
        }
      ],
      "stateMutability": "view",
      "type": "function"
    },
    {
      "inputs": [
        {
          "internalType": "uint16",
          "name": "_srcChainId",
          "type": "uint16"
        },
        {
          "internalType": "bytes",
          "name": "_srcAddress",
          "type": "bytes"
        }
      ],
      "name": "forceResumeReceive",
      "outputs": [],
      "stateMutability": "nonpayable",
      "type": "function"
    },
    {
      "inputs": [
        {
          "internalType": "uint16",
          "name": "_version",
          "type": "uint16"
        },
        {
          "internalType": "uint16",
          "name": "_chainId",
          "type": "uint16"
        },
        {
          "internalType": "address",
          "name": "",
          "type": "address"
        },
        {
          "internalType": "uint256",
          "name": "_configType",
          "type": "uint256"
        }
      ],
      "name": "getConfig",
      "outputs": [
        {
          "internalType": "bytes",
          "name": "",
          "type": "bytes"
        }
      ],
      "stateMutability": "view",
      "type": "function"
    },
    {
      "inputs": [
        {
          "internalType": "address",
          "name": "spender",
          "type": "address"
        },
        {
          "internalType": "uint256",
          "name": "addedValue",
          "type": "uint256"
        }
      ],
      "name": "increaseAllowance",
      "outputs": [
        {
          "internalType": "bool",
          "name": "",
          "type": "bool"
        }
      ],
      "stateMutability": "nonpayable",
      "type": "function"
    },
    {
      "inputs": [
        {
          "internalType": "uint16",
          "name": "_srcChainId",
          "type": "uint16"
        },
        {
          "internalType": "bytes",
          "name": "_srcAddress",
          "type": "bytes"
        }
      ],
      "name": "isTrustedRemote",
      "outputs": [
        {
          "internalType": "bool",
          "name": "",
          "type": "bool"
        }
      ],
      "stateMutability": "view",
      "type": "function"
    },
    {
      "inputs": [],
      "name": "lzEndpoint",
      "outputs": [
        {
          "internalType": "contract ILayerZeroEndpoint",
          "name": "",
          "type": "address"
        }
      ],
      "stateMutability": "view",
      "type": "function"
    },
    {
      "inputs": [
        {
          "internalType": "uint16",
          "name": "_srcChainId",
          "type": "uint16"
        },
        {
          "internalType": "bytes",
          "name": "_srcAddress",
          "type": "bytes"
        },
        {
          "internalType": "uint64",
          "name": "_nonce",
          "type": "uint64"
        },
        {
          "internalType": "bytes",
          "name": "_payload",
          "type": "bytes"
        }
      ],
      "name": "lzReceive",
      "outputs": [],
      "stateMutability": "nonpayable",
      "type": "function"
    },
    {
      "inputs": [],
      "name": "name",
      "outputs": [
        {
          "internalType": "string",
          "name": "",
          "type": "string"
        }
      ],
      "stateMutability": "view",
      "type": "function"
    },
    {
      "inputs": [
        {
          "internalType": "uint16",
          "name": "_srcChainId",
          "type": "uint16"
        },
        {
          "internalType": "bytes",
          "name": "_srcAddress",
          "type": "bytes"
        },
        {
          "internalType": "uint64",
          "name": "_nonce",
          "type": "uint64"
        },
        {
          "internalType": "bytes",
          "name": "_payload",
          "type": "bytes"
        }
      ],
      "name": "nonblockingLzReceive",
      "outputs": [],
      "stateMutability": "nonpayable",
      "type": "function"
    },
    {
      "inputs": [],
      "name": "owner",
      "outputs": [
        {
          "internalType": "address",
          "name": "",
          "type": "address"
        }
      ],
      "stateMutability": "view",
      "type": "function"
    },
    {
      "inputs": [],
      "name": "renounceOwnership",
      "outputs": [],
      "stateMutability": "nonpayable",
      "type": "function"
    },
    {
      "inputs": [
        {
          "internalType": "uint16",
          "name": "_srcChainId",
          "type": "uint16"
        },
        {
          "internalType": "bytes",
          "name": "_srcAddress",
          "type": "bytes"
        },
        {
          "internalType": "uint64",
          "name": "_nonce",
          "type": "uint64"
        },
        {
          "internalType": "bytes",
          "name": "_payload",
          "type": "bytes"
        }
      ],
      "name": "retryMessage",
      "outputs": [],
      "stateMutability": "payable",
      "type": "function"
    },
    {
      "inputs": [
        {
          "internalType": "address",
          "name": "_from",
          "type": "address"
        },
        {
          "internalType": "uint16",
          "name": "_dstChainId",
          "type": "uint16"
        },
        {
          "internalType": "bytes",
          "name": "_toAddress",
          "type": "bytes"
        },
        {
          "internalType": "uint256",
          "name": "_amount",
          "type": "uint256"
        },
        {
          "internalType": "address payable",
          "name": "_refundAddress",
          "type": "address"
        },
        {
          "internalType": "address",
          "name": "_zroPaymentAddress",
          "type": "address"
        },
        {
          "internalType": "bytes",
          "name": "_adapterParams",
          "type": "bytes"
        }
      ],
      "name": "sendFrom",
      "outputs": [],
      "stateMutability": "payable",
      "type": "function"
    },
    {
      "inputs": [
        {
          "internalType": "uint16",
          "name": "_version",
          "type": "uint16"
        },
        {
          "internalType": "uint16",
          "name": "_chainId",
          "type": "uint16"
        },
        {
          "internalType": "uint256",
          "name": "_configType",
          "type": "uint256"
        },
        {
          "internalType": "bytes",
          "name": "_config",
          "type": "bytes"
        }
      ],
      "name": "setConfig",
      "outputs": [],
      "stateMutability": "nonpayable",
      "type": "function"
    },
    {
      "inputs": [
        {
          "internalType": "uint16",
          "name": "_version",
          "type": "uint16"
        }
      ],
      "name": "setReceiveVersion",
      "outputs": [],
      "stateMutability": "nonpayable",
      "type": "function"
    },
    {
      "inputs": [
        {
          "internalType": "uint16",
          "name": "_version",
          "type": "uint16"
        }
      ],
      "name": "setSendVersion",
      "outputs": [],
      "stateMutability": "nonpayable",
      "type": "function"
    },
    {
      "inputs": [
        {
          "internalType": "uint16",
          "name": "_srcChainId",
          "type": "uint16"
        },
        {
          "internalType": "bytes",
          "name": "_srcAddress",
          "type": "bytes"
        }
      ],
      "name": "setTrustedRemote",
      "outputs": [],
      "stateMutability": "nonpayable",
      "type": "function"
    },
    {
      "inputs": [
        {
          "internalType": "bytes4",
          "name": "interfaceId",
          "type": "bytes4"
        }
      ],
      "name": "supportsInterface",
      "outputs": [
        {
          "internalType": "bool",
          "name": "",
          "type": "bool"
        }
      ],
      "stateMutability": "view",
      "type": "function"
    },
    {
      "inputs": [],
      "name": "symbol",
      "outputs": [
        {
          "internalType": "string",
          "name": "",
          "type": "string"
        }
      ],
      "stateMutability": "view",
      "type": "function"
    },
    {
      "inputs": [],
      "name": "totalSupply",
      "outputs": [
        {
          "internalType": "uint256",
          "name": "",
          "type": "uint256"
        }
      ],
      "stateMutability": "view",
      "type": "function"
    },
    {
      "inputs": [
        {
          "internalType": "address",
          "name": "to",
          "type": "address"
        },
        {
          "internalType": "uint256",
          "name": "amount",
          "type": "uint256"
        }
      ],
      "name": "transfer",
      "outputs": [
        {
          "internalType": "bool",
          "name": "",
          "type": "bool"
        }
      ],
      "stateMutability": "nonpayable",
      "type": "function"
    },
    {
      "inputs": [
        {
          "internalType": "address",
          "name": "from",
          "type": "address"
        },
        {
          "internalType": "address",
          "name": "to",
          "type": "address"
        },
        {
          "internalType": "uint256",
          "name": "amount",
          "type": "uint256"
        }
      ],
      "name": "transferFrom",
      "outputs": [
        {
          "internalType": "bool",
          "name": "",
          "type": "bool"
        }
      ],
      "stateMutability": "nonpayable",
      "type": "function"
    },
    {
      "inputs": [
        {
          "internalType": "address",
          "name": "newOwner",
          "type": "address"
        }
      ],
      "name": "transferOwnership",
      "outputs": [],
      "stateMutability": "nonpayable",
      "type": "function"
    },
    {
      "inputs": [
        {
          "internalType": "uint16",
          "name": "",
          "type": "uint16"
        }
      ],
      "name": "trustedRemoteLookup",
      "outputs": [
        {
          "internalType": "bytes",
          "name": "",
          "type": "bytes"
        }
      ],
      "stateMutability": "view",
      "type": "function"
    }
  ],
  "bytecode": "0x60a06040523480156200001157600080fd5b50604051620027d2380380620027d283398101604081905262000034916200023c565b8282828282828080620000473362000093565b60601b6001600160601b031916608052505081516200006e906006906020850190620000e3565b50805162000084906007906020840190620000e3565b50505050505050505062000318565b600080546001600160a01b038381166001600160a01b0319831681178455604051919092169283917f8be0079c531659141344cd1fd0a4f28419497f9722a3daafe3b4186f6b6457e09190a35050565b828054620000f190620002c5565b90600052602060002090601f01602090048101928262000115576000855562000160565b82601f106200013057805160ff191683800117855562000160565b8280016001018555821562000160579182015b828111156200016057825182559160200191906001019062000143565b506200016e92915062000172565b5090565b5b808211156200016e576000815560010162000173565b600082601f8301126200019a578081fd5b81516001600160401b0380821115620001b757620001b762000302565b604051601f8301601f19908116603f01168101908282118183101715620001e257620001e262000302565b81604052838152602092508683858801011115620001fe578485fd5b8491505b8382101562000221578582018301518183018401529082019062000202565b838211156200023257848385830101525b9695505050505050565b60008060006060848603121562000251578283fd5b83516001600160401b038082111562000268578485fd5b620002768783880162000189565b945060208601519150808211156200028c578384fd5b506200029b8682870162000189565b604086015190935090506001600160a01b0381168114620002ba578182fd5b809150509250925092565b600181811c90821680620002da57607f821691505b60208210811415620002fc57634e487b7160e01b600052602260045260246000fd5b50919050565b634e487b7160e01b600052604160045260246000fd5b60805160601c61245c620003766000396000818161055101528181610629015281816108be01528181610958015281816109f201528181610b9a01528181610dee015281816110f2015281816116c801526119f4015261245c6000f3fe6080604052600436106101d75760003560e01c806366ad5c8a11610102578063a9059cbb11610095578063dd62ed3e11610064578063dd62ed3e146105a6578063eb8d72b7146105c6578063f2fde38b146105e6578063f5ecbdbc1461060657600080fd5b8063a9059cbb1461051f578063b353aaa71461053f578063cbed8b9c14610573578063d1deba1f1461059357600080fd5b80638da5cb5b116100d15780638da5cb5b146104925780639358928b146104c457806395d89b41146104ea578063a457c2d7146104ff57600080fd5b806366ad5c8a1461040757806370a0823114610427578063715018a61461045d5780637533d7881461047257600080fd5b806323b872dd1161017a5780633d8b38f6116101495780633d8b38f61461036557806342d65a8d1461038557806351905636146103a55780635b8c41e6146103b857600080fd5b806323b872dd146102d45780632a205e3d146102f4578063313ce56714610329578063395093511461034557600080fd5b806307e0db17116101b657806307e0db1714610255578063095ea7b31461027557806310ddb1371461029557806318160ddd146102b557600080fd5b80621d3567146101dc57806301ffc9a7146101fe57806306fdde0314610233575b600080fd5b3480156101e857600080fd5b506101fc6101f7366004611f82565b610626565b005b34801561020a57600080fd5b5061021e610219366004611d88565b6107cd565b60405190151581526020015b60405180910390f35b34801561023f57600080fd5b5061024861080b565b60405161022a919061217f565b34801561026157600080fd5b506101fc610270366004611e26565b61089d565b34801561028157600080fd5b5061021e610290366004611d5d565b61091f565b3480156102a157600080fd5b506101fc6102b0366004611e26565b610937565b3480156102c157600080fd5b506005545b60405190815260200161022a565b3480156102e057600080fd5b5061021e6102ef366004611c67565b61098f565b34801561030057600080fd5b5061031461030f366004611e90565b6109b3565b6040805192835260208301919091520161022a565b34801561033557600080fd5b506040516012815260200161022a565b34801561035157600080fd5b5061021e610360366004611d5d565b610a8d565b34801561037157600080fd5b5061021e610380366004611e40565b610aaf565b34801561039157600080fd5b506101fc6103a0366004611e40565b610b7b565b6101fc6103b3366004611ca7565b610c0a565b3480156103c457600080fd5b506102c66103d3366004611f23565b6002602090815260009384526040808520845180860184018051928152908401958401959095209452929052825290205481565b34801561041357600080fd5b506101fc610422366004611f82565b610c19565b34801561043357600080fd5b506102c6610442366004611c0c565b6001600160a01b031660009081526003602052604090205490565b34801561046957600080fd5b506101fc610c89565b34801561047e57600080fd5b5061024861048d366004611e26565b610c9d565b34801561049e57600080fd5b506000546001600160a01b03165b6040516001600160a01b03909116815260200161022a565b3480156104d057600080fd5b5030600090815260036020526040902054600554036102c6565b3480156104f657600080fd5b50610248610d37565b34801561050b57600080fd5b5061021e61051a366004611d5d565b610d46565b34801561052b57600080fd5b5061021e61053a366004611d5d565b610dc1565b34801561054b57600080fd5b506104ac7f000000000000000000000000000000000000000000000000000000000000000081565b34801561057f57600080fd5b506101fc61058e366004612053565b610dcf565b6101fc6105a1366004611f82565b610e64565b3480156105b257600080fd5b506102c66105c1366004611c2f565b610fb6565b3480156105d257600080fd5b506101fc6105e1366004611e40565b610fe1565b3480156105f257600080fd5b506101fc610601366004611c0c565b611048565b34801561061257600080fd5b50610248610621366004612007565b6110c1565b337f00000000000000000000000000000000000000000000000000000000000000006001600160a01b0316146106a35760405162461bcd60e51b815260206004820152601e60248201527f4c7a4170703a20696e76616c696420656e64706f696e742063616c6c6572000060448201526064015b60405180910390fd5b61ffff8416600090815260016020526040812080546106c1906123ab565b80601f01602080910402602001604051908101604052809291908181526020018280546106ed906123ab565b801561073a5780601f1061070f5761010080835404028352916020019161073a565b820191906000526020600020905b81548152906001019060200180831161071d57829003601f168201915b505050505090508051845114801561075f575080805190602001208480519060200120145b6107ba5760405162461bcd60e51b815260206004820152602660248201527f4c7a4170703a20696e76616c696420736f757263652073656e64696e6720636f6044820152651b9d1c9858dd60d21b606482015260840161069a565b6107c685858585611181565b5050505050565b60006001600160e01b0319821615806107f657506001600160e01b031982166336372b0760e01b145b80610805575061080582611272565b92915050565b60606006805461081a906123ab565b80601f0160208091040260200160405190810160405280929190818152602001828054610846906123ab565b80156108935780601f1061086857610100808354040283529160200191610893565b820191906000526020600020905b81548152906001019060200180831161087657829003601f168201915b5050505050905090565b6108a56112a7565b6040516307e0db1760e01b815261ffff821660048201527f00000000000000000000000000000000000000000000000000000000000000006001600160a01b0316906307e0db17906024015b600060405180830381600087803b15801561090b57600080fd5b505af11580156107c6573d6000803e3d6000fd5b60003361092d818585611301565b5060019392505050565b61093f6112a7565b6040516310ddb13760e01b815261ffff821660048201527f00000000000000000000000000000000000000000000000000000000000000006001600160a01b0316906310ddb137906024016108f1565b60003361099d858285611425565b6109a8858585611499565b506001949350505050565b600080600086866040516020016109cb929190612192565b60408051601f198184030181529082905263040a7bb160e41b825291506001600160a01b037f000000000000000000000000000000000000000000000000000000000000000016906340a7bb1090610a2f908b90309086908b908b906004016121b4565b604080518083038186803b158015610a4657600080fd5b505afa158015610a5a573d6000803e3d6000fd5b505050506040513d601f19601f82011682018060405250810190610a7e91906120bf565b92509250509550959350505050565b60003361092d818585610aa08383610fb6565b610aaa919061235b565b611301565b61ffff831660009081526001602052604081208054829190610ad0906123ab565b80601f0160208091040260200160405190810160405280929190818152602001828054610afc906123ab565b8015610b495780601f10610b1e57610100808354040283529160200191610b49565b820191906000526020600020905b815481529060010190602001808311610b2c57829003601f168201915b505050505090508383604051610b60929190612153565b60405180910390208180519060200120149150509392505050565b610b836112a7565b6040516342d65a8d60e01b81526001600160a01b037f000000000000000000000000000000000000000000000000000000000000000016906342d65a8d90610bd390869086908690600401612208565b600060405180830381600087803b158015610bed57600080fd5b505af1158015610c01573d6000803e3d6000fd5b50505050505050565b610c0187878787878787611667565b333014610c775760405162461bcd60e51b815260206004820152602660248201527f4e6f6e626c6f636b696e674c7a4170703a2063616c6c6572206d7573742062656044820152650204c7a4170760d41b606482015260840161069a565b610c83848484846117be565b50505050565b610c916112a7565b610c9b6000611859565b565b60016020526000908152604090208054610cb6906123ab565b80601f0160208091040260200160405190810160405280929190818152602001828054610ce2906123ab565b8015610d2f5780601f10610d0457610100808354040283529160200191610d2f565b820191906000526020600020905b815481529060010190602001808311610d1257829003601f168201915b505050505081565b60606007805461081a906123ab565b60003381610d548286610fb6565b905083811015610db45760405162461bcd60e51b815260206004820152602560248201527f45524332303a2064656372656173656420616c6c6f77616e63652062656c6f77604482015264207a65726f60d81b606482015260840161069a565b6109a88286868403611301565b60003361092d818585611499565b610dd76112a7565b6040516332fb62e760e21b81526001600160a01b037f0000000000000000000000000000000000000000000000000000000000000000169063cbed8b9c90610e2b90889088908890889088906004016122d6565b600060405180830381600087803b158015610e4557600080fd5b505af1158015610e59573d6000803e3d6000fd5b505050505050505050565b61ffff84166000908152600260205260408082209051610e85908690612163565b90815260408051602092819003830190206001600160401b03861660009081529252902054905080610f055760405162461bcd60e51b815260206004820152602360248201527f4e6f6e626c6f636b696e674c7a4170703a206e6f2073746f726564206d65737360448201526261676560e81b606482015260840161069a565b815160208301208114610f645760405162461bcd60e51b815260206004820152602160248201527f4e6f6e626c6f636b696e674c7a4170703a20696e76616c6964207061796c6f616044820152601960fa1b606482015260840161069a565b61ffff85166000908152600260205260408082209051610f85908790612163565b90815260408051602092819003830190206001600160401b038716600090815292529020556107c6858585856117be565b6001600160a01b03918216600090815260046020908152604080832093909416825291909152205490565b610fe96112a7565b61ffff83166000908152600160205260409020611007908383611a7a565b507ffa41487ad5d6728f0b19276fa1eddc16558578f5109fc39d2dc33c3230470dab83838360405161103b93929190612208565b60405180910390a1505050565b6110506112a7565b6001600160a01b0381166110b55760405162461bcd60e51b815260206004820152602660248201527f4f776e61626c653a206e6577206f776e657220697320746865207a65726f206160448201526564647265737360d01b606482015260840161069a565b6110be81611859565b50565b604051633d7b2f6f60e21b815261ffff808616600483015284166024820152306044820152606481018290526060907f00000000000000000000000000000000000000000000000000000000000000006001600160a01b03169063f5ecbdbc9060840160006040518083038186803b15801561113c57600080fd5b505afa158015611150573d6000803e3d6000fd5b505050506040513d6000823e601f3d908101601f191682016040526111789190810190611db0565b95945050505050565b604051633356ae4560e11b815230906366ad5c8a906111aa90879087908790879060040161228d565b600060405180830381600087803b1580156111c457600080fd5b505af19250505080156111d5575060015b610c83578080519060200120600260008661ffff1661ffff1681526020019081526020016000208460405161120a9190612163565b9081526040805191829003602090810183206001600160401b0387166000908152915220919091557fe6f254030bcb01ffd20558175c13fcaed6d1520be7becee4c961b65f79243b0d9061126590869086908690869061228d565b60405180910390a1610c83565b60006001600160e01b031982166301d1d13560e71b148061080557506301ffc9a760e01b6001600160e01b0319831614610805565b6000546001600160a01b03163314610c9b5760405162461bcd60e51b815260206004820181905260248201527f4f776e61626c653a2063616c6c6572206973206e6f7420746865206f776e6572604482015260640161069a565b6001600160a01b0383166113635760405162461bcd60e51b8152602060048201526024808201527f45524332303a20617070726f76652066726f6d20746865207a65726f206164646044820152637265737360e01b606482015260840161069a565b6001600160a01b0382166113c45760405162461bcd60e51b815260206004820152602260248201527f45524332303a20617070726f766520746f20746865207a65726f206164647265604482015261737360f01b606482015260840161069a565b6001600160a01b0383811660008181526004602090815260408083209487168084529482529182902085905590518481527f8c5be1e5ebec7d5bd14f71427d1e84f3dd0314c0f7b2291e5b200ac8c7c3b925910160405180910390a3505050565b60006114318484610fb6565b90506000198114610c83578181101561148c5760405162461bcd60e51b815260206004820152601d60248201527f45524332303a20696e73756666696369656e7420616c6c6f77616e6365000000604482015260640161069a565b610c838484848403611301565b6001600160a01b0383166114fd5760405162461bcd60e51b815260206004820152602560248201527f45524332303a207472616e736665722066726f6d20746865207a65726f206164604482015264647265737360d81b606482015260840161069a565b6001600160a01b03821661155f5760405162461bcd60e51b815260206004820152602360248201527f45524332303a207472616e7366657220746f20746865207a65726f206164647260448201526265737360e81b606482015260840161069a565b6001600160a01b038316600090815260036020526040902054818110156115d75760405162461bcd60e51b815260206004820152602660248201527f45524332303a207472616e7366657220616d6f756e7420657863656564732062604482015265616c616e636560d01b606482015260840161069a565b6001600160a01b0380851660009081526003602052604080822085850390559185168152908120805484929061160e90849061235b565b92505081905550826001600160a01b0316846001600160a01b03167fddf252ad1be2c89b69c2b068fc378daa952ba7f163c4a11628f55a4df523b3ef8460405161165a91815260200190565b60405180910390a3610c83565b611673878787876118ae565b60008585604051602001611688929190612192565b60405160208183030381529060405290506116a687828686866118d5565b604051630f428ae960e31b815261ffff881660048201523060248201526000907f00000000000000000000000000000000000000000000000000000000000000006001600160a01b031690637a1457489060440160206040518083038186803b15801561171257600080fd5b505afa158015611726573d6000803e3d6000fd5b505050506040513d601f19601f8201168201806040525081019061174a91906120e2565b90508660405161175a9190612163565b604080519182900382208883526001600160401b03841660208401529161ffff8b16916001600160a01b038d16917f024797cc77ce15dc717112d54fb1df125fdfd8c81344fb046c5e074427ce1543910160405180910390a4505050505050505050565b600080828060200190518101906117d59190611de2565b601482015191935091506117ea878284611a6f565b806001600160a01b0316866040516118029190612163565b604080519182900382208583526001600160401b03891660208401529161ffff8b16917f64e10c37f404d128982dce114f5d233c14c5c7f6d8db93099e3d99dacb9e27ba910160405180910390a450505050505050565b600080546001600160a01b038381166001600160a01b0319831681178455604051919092169283917f8be0079c531659141344cd1fd0a4f28419497f9722a3daafe3b4186f6b6457e09190a35050565b505050565b336001600160a01b03851681146118ca576118ca858284611425565b6107c6853084611499565b61ffff8516600090815260016020526040812080546118f3906123ab565b80601f016020809104026020016040519081016040528092919081815260200182805461191f906123ab565b801561196c5780601f106119415761010080835404028352916020019161196c565b820191906000526020600020905b81548152906001019060200180831161194f57829003601f168201915b505050505090508051600014156119de5760405162461bcd60e51b815260206004820152603060248201527f4c7a4170703a2064657374696e6174696f6e20636861696e206973206e6f742060448201526f61207472757374656420736f7572636560801b606482015260840161069a565b60405162c5803160e81b81526001600160a01b037f0000000000000000000000000000000000000000000000000000000000000000169063c5803100903490611a35908a9086908b908b908b908b90600401612226565b6000604051808303818588803b158015611a4e57600080fd5b505af1158015611a62573d6000803e3d6000fd5b5050505050505050505050565b6118a9308383611499565b828054611a86906123ab565b90600052602060002090601f016020900481019282611aa85760008555611aee565b82601f10611ac15782800160ff19823516178555611aee565b82800160010185558215611aee579182015b82811115611aee578235825591602001919060010190611ad3565b50611afa929150611afe565b5090565b5b80821115611afa5760008155600101611aff565b60008083601f840112611b24578182fd5b5081356001600160401b03811115611b3a578182fd5b602083019150836020828501011115611b5257600080fd5b9250929050565b600082601f830112611b69578081fd5b8135611b7c611b7782612334565b612304565b818152846020838601011115611b90578283fd5b816020850160208301379081016020019190915292915050565b600082601f830112611bba578081fd5b8151611bc8611b7782612334565b818152846020838601011115611bdc578283fd5b611bed82602083016020870161237f565b949350505050565b803561ffff81168114611c0757600080fd5b919050565b600060208284031215611c1d578081fd5b8135611c28816123fc565b9392505050565b60008060408385031215611c41578081fd5b8235611c4c816123fc565b91506020830135611c5c816123fc565b809150509250929050565b600080600060608486031215611c7b578081fd5b8335611c86816123fc565b92506020840135611c96816123fc565b929592945050506040919091013590565b600080600080600080600060e0888a031215611cc1578283fd5b8735611ccc816123fc565b9650611cda60208901611bf5565b955060408801356001600160401b0380821115611cf5578485fd5b611d018b838c01611b59565b965060608a0135955060808a01359150611d1a826123fc565b90935060a089013590611d2c826123fc565b90925060c08901359080821115611d41578283fd5b50611d4e8a828b01611b59565b91505092959891949750929550565b60008060408385031215611d6f578182fd5b8235611d7a816123fc565b946020939093013593505050565b600060208284031215611d99578081fd5b81356001600160e01b031981168114611c28578182fd5b600060208284031215611dc1578081fd5b81516001600160401b03811115611dd6578182fd5b611bed84828501611baa565b60008060408385031215611df4578182fd5b82516001600160401b03811115611e09578283fd5b611e1585828601611baa565b925050602083015190509250929050565b600060208284031215611e37578081fd5b611c2882611bf5565b600080600060408486031215611e54578283fd5b611e5d84611bf5565b925060208401356001600160401b03811115611e77578283fd5b611e8386828701611b13565b9497909650939450505050565b600080600080600060a08688031215611ea7578283fd5b611eb086611bf5565b945060208601356001600160401b0380821115611ecb578485fd5b611ed789838a01611b59565b955060408801359450606088013591508115158214611ef4578283fd5b90925060808701359080821115611f09578283fd5b50611f1688828901611b59565b9150509295509295909350565b600080600060608486031215611f37578081fd5b611f4084611bf5565b925060208401356001600160401b03811115611f5a578182fd5b611f6686828701611b59565b9250506040840135611f7781612411565b809150509250925092565b60008060008060808587031215611f97578182fd5b611fa085611bf5565b935060208501356001600160401b0380821115611fbb578384fd5b611fc788838901611b59565b945060408701359150611fd982612411565b90925060608601359080821115611fee578283fd5b50611ffb87828801611b59565b91505092959194509250565b6000806000806080858703121561201c578182fd5b61202585611bf5565b935061203360208601611bf5565b92506040850135612043816123fc565b9396929550929360600135925050565b60008060008060006080868803121561206a578283fd5b61207386611bf5565b945061208160208701611bf5565b93506040860135925060608601356001600160401b038111156120a2578182fd5b6120ae88828901611b13565b969995985093965092949392505050565b600080604083850312156120d1578182fd5b505080516020909101519092909150565b6000602082840312156120f3578081fd5b8151611c2881612411565b81835281816020850137506000828201602090810191909152601f909101601f19169091010190565b6000815180845261213f81602086016020860161237f565b601f01601f19169290920160200192915050565b8183823760009101908152919050565b6000825161217581846020870161237f565b9190910192915050565b602081526000611c286020830184612127565b6040815260006121a56040830185612127565b90508260208301529392505050565b61ffff861681526001600160a01b038516602082015260a0604082018190526000906121e290830186612127565b841515606084015282810360808401526121fc8185612127565b98975050505050505050565b61ffff841681526040602082015260006111786040830184866120fe565b61ffff8716815260c06020820152600061224360c0830188612127565b82810360408401526122558188612127565b6001600160a01b0387811660608601528616608085015283810360a085015290506122808185612127565b9998505050505050505050565b61ffff851681526080602082015260006122aa6080830186612127565b6001600160401b038516604084015282810360608401526122cb8185612127565b979650505050505050565b600061ffff8088168352808716602084015250846040830152608060608301526122cb6080830184866120fe565b604051601f8201601f191681016001600160401b038111828210171561232c5761232c6123e6565b604052919050565b60006001600160401b0382111561234d5761234d6123e6565b50601f01601f191660200190565b6000821982111561237a57634e487b7160e01b81526011600452602481fd5b500190565b60005b8381101561239a578181015183820152602001612382565b83811115610c835750506000910152565b600181811c908216806123bf57607f821691505b602082108114156123e057634e487b7160e01b600052602260045260246000fd5b50919050565b634e487b7160e01b600052604160045260246000fd5b6001600160a01b03811681146110be57600080fd5b6001600160401b03811681146110be57600080fdfea264697066735822122016cb0e589781e9403a2ceecbf23cf42e3b1ee0cfedac52d96cbe7dd9f76b556d64736f6c63430008040033",
  "linkReferences": {},
  "deployedLinkReferences": {}
}